:020000040000FA
:1000000034EF00F00E01600ED86F0E01080EDE6FA7
:1000100012000F01116B0F018890889288948896C6
:100020000F01836A12000F018A920F0121930F01C1
:10003000859212000F0189820F0119930F01158318
:100040000F0189840F0119950F0115850F0189860C
:100050000F0119970F0115870F0189880F01199951
:060060000F0115891200DA
:02006600000098
:0800680002EC00F009EC00F0CD
:1000700013EC00F01AEC00F0016A7DEC01F03DEFAA
:1000800000F0900ED56E900ED66E860ED46EE80EF1
:10009000D36ED5AA49EF00F0D59E1200900ED56E12
:1000A000900ED66EC30ED46E740ED36ED5AA56EFD4
:1000B00000F0D59E1200900ED56E900ED66EE20E18
:1000C000D46EB40ED36ED5AA63EF00F0D59E1200A5
:1000D000900ED56E900ED66EFF0ED46EFC0ED36EC3
:1000E000D5AA70EF00F0D59E1200900ED56E900E3E
:1000F000D66EFE0ED46ECA0ED36ED5AA7DEF00F07A
:10010000D59E1200900ED56E900ED66EFD0ED46E5A
:10011000940ED36ED5AA8AEF00F0D59E12000F017F
:10012000839012000F01838012000F01839212004E
:100130000F01838212000F01839412000F01838448
:1001400012000F01839612000F01838612000F0127
:10015000838083828384838612000F01839083923D
:100160008394839612000F0183805BEC00F08390F0
:1001700083825BEC00F0839283845BEC00F08394D9
:1001800083865BEC00F0839612000F0185820000ED
:100190000000000085920000000000000000000048
:1001A000000000000000000012000F018582000026
:1001B0000000000000000000000000000000859228
:1001C000000000000000000000001200C5EC00F07C
:1001D000C5EC00F0D5EC00F0C5EC00F0C5EC00F08B
:1001E000C5EC00F0C5EC00F0C5EC00F01200C5EC69
:1001F00000F0C5EC00F0C5EC00F0C5EC00F0C5EC7B
:1002000000F0C5EC00F0C5EC00F0C5EC00F0120009
:10021000F7EC00F0E6EC00F0F7EC00F01200E6EC92
:1002200000F0F7EC00F0F7EC00F01200F7EC00F053
:10023000F7EC00F0E6EC00F01200E6EC00F0E6EC83
:1002400000F0F7EC00F01200E6EC00F0E6EC00F055
:10025000E6EC00F01200F7EC00F0F7EC00F0F7EC41
:1002600000F0120024EC01F024EC01F024EC01F089
:1002700024EC01F024EC01F024EC01F024EC01F07A
:1002800024EC01F024EC01F024EC01F024EC01F06A
:1002900024EC01F0120024EC01F02BEC01F02BEC2B
:1002A00001F02BEC01F02BEC01F02BEC01F02BEC2E
:1002B00001F02BEC01F02BEC01F02BEC01F02BEC1E
:1002C00001F02BEC01F012002BEC01F02BEC01F013
:1002D0002BEC01F02BEC01F02BEC01F02BEC01F0FE
:1002E0002BEC01F02BEC01F02BEC01F02BEC01F0EE
:1002F0002BEC01F02BEC01F012005BEC00F00F0195
:100300008EB888EF01F0040E006EA0EC01F0120030
:100310000F018EB68FEF01F0030E006E12000F0179
:100320008EB496EF01F0020E006E12000F018EB235
:100330009FEF01F0010E006EDDEC01F012001200E3
:10034000015030E0010E0162B1EF01F092EC00F0DB
:1003500098EC00F09BEC00F0A1EC00F01FEC02F038
:100360001200020E0162C0EF01F092EC00F098EC76
:1003700000F09EEC00F0A1EC00F01FEC02F0120087
:10038000030E0162C9EF01F0A7EC00F01FEC02F0D0
:100390001200040E0160CEEF01F01200016AADEC14
:1003A00000F0120092EC00F095EC00F09BEC00F0F5
:1003B000A1EC00F01FEC02F01200015035E0010E3C
:1003C0000162E8EF01F0ADEC00F021EC02F0120068
:1003D000020E0162F7EF01F092EC00F095EC00F0F4
:1003E0009BEC00F0A1EC00F021EC02F01200030EF7
:1003F000016206EF02F092EC00F098EC00F09BEC4A
:1004000000F0A1EC00F021EC02F01200040E0162F9
:10041000120092EC00F098EC00F09EEC00F0A1ECE1
:1004200000F021EC02F01200A7EC00F01FEC02F04B
:100430001FEC02F01FEC02F01FEC02F01200012A88
:060440001200010612008B
:020000040030CA
:010000008C73
:01000100FE00
:010004009F5C
:01000700DF19
:00000001FF
