:020000040000FA
:10000000F9EF00F00E01600ED86F0E01080EDE6FE2
:1000100012000F01116B0F018890889288948896C6
:100020000F01836A12000F018A920F0121930F01C1
:10003000859212000F0189820F0119930F01158318
:100040000F0189840F0119950F0115850F0189860C
:100050000F0119970F0115870F0189880F01199951
:100060000F01158912000F01219721990F018A862E
:100070008A880E010D0EFA6F0E0EFB6FC00E956E84
:10008000280E966E400E976E000E986E270E936E99
:10009000FE0E946E0E01C56B1200000E086E800EEF
:1000A000096E5FEC00F0010E086E096A5FEC00F06B
:1000B000020E086E520E096E5FEC00F012000E0187
:1000C0009780CDA161EF00F0CD91DE0E926ECDA1B3
:1000D00067EF00F0CD910850926ECDA16DEF00F06A
:1000E000CD910950926ECDA173EF00F0CD91978420
:1000F000CDA178EF00F0CD9112000E019780CDA137
:100100007FEF00F0CD91DE0E926ECDA185EF00F075
:10011000CD910850926ECDA18BEF00F0CD919782DA
:10012000CDA190EF00F0CD91DF0E926ECDA196EFB4
:1001300000F0CD919786CDA19BEF00F0CD9192502C
:100140000A6E978A9788CDA1A3EF00F0CD9197848E
:10015000CDA1A8EF00F0CD911200056E05380F0B70
:10016000066E0A0E0602F350066E05500F0B0624AB
:100170001200056E066A0A0E055E03E3062ABBEF4F
:1001800000F00526063805241200010E086E7DECED
:1001900000F00A507F0BADEC00F0026E020E086E0C
:1001A0007DEC00F00A501F0BADEC00F0056E0C0E5C
:1001B0000562DDEF00F0036A12000550036E1200C5
:1001C0000250B9EC00F0096E010E086E5FEC00F011
:1001D0001200035003E10C0EEEEF00F0B9EC00F05A
:1001E0001F0B4009096E020E086E5FEC00F0120052
:0201F00000000D
:0E01F200016A026A036A056A066A076A046AFD
:100200000C6A0D6A0E6A0F6A106A116A126A136A22
:10021000146A156A166A176A02EC00F009EC00F01D
:1002200013EC00F01AEC00F0000133EC00F05BEC92
:1002300001F04DEC00F0C5EC00F051EC02F028ECC0
:1002400003F06AEC02F00B5005E041EC01F00B6AA0
:1002500021EF01F0C5EC00F086EC03F00CEC03F0AC
:1002600028EC03F021EF01F0900ED56E900ED66EC3
:10027000860ED46EE80ED36ED5AA3CEF01F0D59E63
:100280001200900ED56E900ED66EC30ED46E740E04
:10029000D36ED5AA49EF01F0D59E1200900ED56E0F
:1002A000900ED66EE20ED46EB40ED36ED5AA56EF73
:1002B00001F0D59E1200900ED56E900ED66EF10E06
:1002C000D46E5A0ED36ED5AA63EF01F0D59E1200FC
:1002D000900ED56E900ED66EFE0ED46ECA0ED36EF4
:1002E000D5AA70EF01F0D59E12000F018390120085
:1002F0000F01838012000F01839212000F0183828D
:1003000012000F01839412000F01838412000F0169
:10031000839612000F01838612000F01838083826F
:100320008384838612000F01839083928394839643
:1003300012000F0183804EEC01F0839083824EEC1B
:1003400001F0839283844EEC01F0839483864EEC1B
:1003500001F0839612000F0185820000000000006A
:100360008592000000000000000000000000000076
:100370000000000012000F01858200000000000054
:100380000000000000000000000085920000000056
:100390000000000000001200ABEC01F0ABEC01F03B
:1003A000BBEC01F0ABEC01F0ABEC01F0ABEC01F01D
:1003B000ABEC01F0ABEC01F01200ABEC01F0ABECFC
:1003C00001F0ABEC01F0ABEC01F0ABEC01F0ABEC0D
:1003D00001F0ABEC01F0ABEC01F01200DDEC01F050
:1003E000CCEC01F0DDEC01F01200CCEC01F0DDEC26
:1003F00001F0DDEC01F01200DDEC01F0DDEC01F0CC
:10040000CCEC01F01200CCEC01F0CCEC01F0DDEC16
:1004100001F01200DDEC01F0CCEC01F0CCEC01F0CD
:100420001200CCEC01F0CCEC01F0CCEC01F01200AD
:10043000DDEC01F0DDEC01F0DDEC01F0120011EC7F
:1004400002F011EC02F011EC02F011EC02F011ECF0
:1004500002F011EC02F011EC02F011EC02F011ECE0
:1004600002F011EC02F011EC02F011EC02F01200BB
:1004700011EC02F018EC02F018EC02F018EC02F0AB
:1004800018EC02F018EC02F018EC02F018EC02F094
:1004900018EC02F018EC02F018EC02F018EC02F084
:1004A000120018EC02F018EC02F018EC02F018EC54
:1004B00002F018EC02F018EC02F018EC02F018EC64
:1004C00002F018EC02F018EC02F018EC02F018EC54
:1004D00002F012000F018EB87FEF02F0040E006EE2
:1004E000BFEC02F05BEC01F068EC01F068EC01F0AD
:1004F00068EC01F068EC01F068EC01F012000F010B
:100500008EB694EF02F0030E006EC5EC02F05BECC9
:1005100001F068EC01F068EC01F068EC01F068ECC7
:1005200001F068EC01F012000F018EB4A9EF02F0A7
:10053000020E006ECFEC02F05BEC01F068EC01F013
:1005400068EC01F068EC01F068EC01F068EC01F097
:1005500012000F018EB2BEEF02F0010E006EDCEC55
:1005600002F05BEC01F068EC01F068EC01F068EC83
:1005700001F068EC01F068EC01F0120012000B8051
:10058000E2EC02F0E0EC00F012000B80032A0C0E0B
:100590000360036A28EC03F0E9EC00F012000B8022
:1005A000035003E00306D7EF02F00B0E036E28ECB6
:1005B00003F0E9EC00F012000B80F5EC02F0E0EC47
:1005C00000F01200022A3C0E0262EEEF02F0026A14
:1005D000032A0C0E0360036AE9EC00F086EC03F0DA
:1005E0000CEC03F028EC03F012000206FF0E02628E
:1005F00005EF03F03B0E026E035003E0030603EF2A
:1006000003F00B0E036EE9EC00F086EC03F00CEC4B
:1006100003F028EC03F0120093EC01F0015017E016
:1006200078EC01F0010E016217EF03F012007EEC8E
:1006300001F0020E01621EEF03F0120084EC01F0E3
:10064000030E016225EF03F012008AEC01F01200A4
:1006500000EE0CF00C0E076EEE6A0706FDE103508B
:10066000076E010E056E50EC03F07CEC03F00450B5
:10067000076E0450035C08E000EE0CF00750E9261A
:10068000020EEF6E4AEF03F000EE0CF00750E92681
:10069000030EEF6E859268EC01F071EC03F012002E
:1006A00000EE0CF00750E9260550EF6E12000650E0
:1006B00015E0010E066260EF03F0EEEC01F01200AF
:1006C000020E066267EF03F0FCEC01F01200030E6D
:1006D00006626EEF03F00AEC02F0120018EC02F072
:1006E000120000EE0CF00C0E076EEE50066E57EC8A
:1006F00003F00706FAE112000250056E046A050EC7
:10070000055E03E3042A7FEF03F012000250056E3A
:10071000050E055E02E388EF03F00524016E12006A
:020000040030CA
:010000008C73
:01000100FE00
:010004009F5C
:01000700DF19
:00000001FF
