:020000040000FA
:1000000034EF00F00E01600ED86F0E01080EDE6FA7
:1000100012000F01116B0F018890889288948896C6
:100020000F01836A12000F018A920F0121930F01C1
:10003000859212000F0189820F0119930F01158318
:100040000F0189840F0119950F0115850F0189860C
:100050000F0119970F0115870F0189880F01199951
:060060000F0115891200DA
:02006600000098
:0800680002EC00F009EC00F0CD
:1000700013EC00F01AEC00F0B4EC00F033EC01F0FB
:100080003CEF00F0900ED56E900ED66E860ED46EBC
:10009000E80ED36ED5AA4AEF00F0D59E1200900E5E
:1000A000D56E900ED66EC30ED46E740ED36ED5AAD6
:1000B00057EF00F0D59E1200900ED56E900ED66EC2
:1000C000FF0ED46EFC0ED36ED5AA64EF00F0D59E61
:1000D0001200900ED56E900ED66EFE0ED46ECA0E25
:1000E000D36ED5AA71EF00F0D59E1200900ED56E9A
:1000F000900ED66EFD0ED46E940ED36ED5AA7EEF02
:1001000000F0D59E1200900ED56E900ED66EE20EC7
:10011000D46EB40ED36ED5AA8BEF00F0D59E12002C
:100120000F01839012000F01838012000F01839250
:1001300012000F01838212000F01839412000F013D
:10014000838412000F01839612000F018386120030
:100150000F01838083828384838612000F01839042
:1001600083928394839612000F01838083EC00F0C6
:100170008390838283EC00F08392838483EC00F08D
:100180008394838683EC00F0839612000F018582AE
:100190000000000000008592000000000000000048
:1001A0000000000000000000000012000F01858226
:1001B000000000000000000000000000000000003F
:1001C0008592000000000000000000001200C6EC54
:1001D00000F0C6EC00F0D6EC00F0C6EC00F0C6EC87
:1001E00000F0C6EC00F0C6EC00F0C6EC00F0120027
:1001F000C6EC00F0C6EC00F0C6EC00F0C6EC00F077
:10020000C6EC00F0C6EC00F0C6EC00F0C6EC00F066
:100210001200F8EC00F0E7EC00F0F8EC00F012004F
:10022000E7EC00F0F8EC00F0F8EC00F01200F8EC6D
:1002300000F0F8EC00F0E7EC00F01200E7EC00F062
:10024000E7EC00F0F8EC00F01200E7EC00F0E7EC6F
:1002500000F0E7EC00F01200F8EC00F0F8EC00F031
:10026000F8EC00F0120025EC01F025EC01F025EC93
:1002700001F025EC01F025EC01F025EC01F025EC76
:1002800001F025EC01F025EC01F025EC01F025EC66
:1002900001F025EC01F012002CEC01F02CEC01F047
:1002A0002CEC01F02CEC01F02CEC01F02CEC01F02A
:1002B0002CEC01F02CEC01F02CEC01F02CEC01F01A
:0A02C0002CEC01F02CEC01F0120010
:020000040030CA
:010000008C73
:01000100FE00
:010004009F5C
:01000700DF19
:00000001FF
