:020000040000FA
:1000000034EF00F00E01600ED86F0E01080EDE6FA7
:1000100012000F01116B0F018890889288948896C6
:100020000F01836A12000F018A920F0121930F01C1
:10003000859212000F0189820F0119930F01158318
:100040000F0189840F0119950F0115850F0189860C
:100050000F0119970F0115870F0189880F01199951
:060060000F0115891200DA
:02006600000098
:0800680002EC00F009EC00F0CD
:1000700013EC00F01AEC00F0016A026A036A046AE9
:10008000066A076A086A056A606B616B626B636B7C
:10009000646B656B666B676B686B696B6A6B6B6BCC
:1000A00027EC02F099EC01F052EF00F0900ED56EC3
:1000B000900ED66E860ED46EE80ED36ED5AA5EEF85
:1000C00000F0D59E1200900ED56E900ED66EC30E27
:1000D000D46E740ED36ED5AA6BEF00F0D59E1200CD
:1000E000900ED56E900ED66EE20ED46EB40ED36E18
:1000F000D5AA78EF00F0D59E1200900ED56E900E26
:10010000D66EF10ED46E5A0ED36ED5AA85EF00F0DE
:10011000D59E1200900ED56E900ED66EFE0ED46E49
:10012000CA0ED36ED5AA92EF00F0D59E1200900EA3
:10013000D56E900ED66EFD0ED46E940ED36ED5AAEB
:100140009FEF00F0D59E12000F01839012000F0167
:10015000838012000F01839212000F01838212002C
:100160000F01839412000F01838412000F01839604
:1001700012000F01838612000F0183808382838423
:10018000838612000F0183908392839483961200DA
:100190000F01838070EC00F08390838270EC00F09C
:1001A0008392838470EC00F08394838670EC00F07B
:1001B000839612000F0185820000000000008592E6
:1001C000000000000000000000000000000000002F
:1001D000000012000F0185820000000000000000F6
:1001E00000000000000000008592000000000000F8
:1001F000000000001200DAEC00F0DAEC00F0EAECAB
:1002000000F0DAEC00F0DAEC00F0DAEC00F0DAEC16
:1002100000F0DAEC00F01200DAEC00F0DAEC00F0BA
:10022000DAEC00F0DAEC00F0DAEC00F0DAEC00F0F6
:10023000DAEC00F0DAEC00F012000CEC01F0FBEC70
:1002400000F00CEC01F01200FBEC00F00CEC01F003
:100250000CEC01F012000CEC01F00CEC01F0FBECEA
:1002600000F01200FBEC00F0FBEC00F00CEC01F0F5
:1002700012000CEC01F0FBEC00F0FBEC00F01200C3
:10028000FBEC00F0FBEC00F0FBEC00F012000CECDF
:1002900001F00CEC01F00CEC01F0120040EC01F06C
:1002A00040EC01F040EC01F040EC01F040EC01F0DA
:1002B00040EC01F040EC01F040EC01F040EC01F0CA
:1002C00040EC01F040EC01F040EC01F0120040EC99
:1002D00001F047EC01F047EC01F047EC01F047EC8E
:1002E00001F047EC01F047EC01F047EC01F047EC7E
:1002F00001F047EC01F047EC01F047EC01F012008F
:1003000047EC01F047EC01F047EC01F047EC01F05D
:1003100047EC01F047EC01F047EC01F047EC01F04D
:1003200047EC01F047EC01F047EC01F047EC01F03D
:1003300012007DEC00F08AEC00F08AEC00F08AEC10
:1003400000F08AEC00F08AEC00F00F018EB8AEEFFE
:1003500001F0040E006ECAEC01F012000F018EB61F
:10036000B7EF01F0030E006ECDEC01F012000F01AB
:100370008EB4C0EF01F0020E006ED6EC01F0120058
:100380000F018EB2C9EF01F0010E006EE0EC01F03A
:1003900012001200E3EC01F01200042A0C0E0462B9
:1003A000D3EF01F0046A27EC02F012000406FF0EFE
:1003B0000462DDEF01F00B0E046E27EC02F0120078
:1003C000F6EC01F01200032A3C0E0362EFEF01F09D
:1003D000036A042A0C0E0462EFEF01F0046A7DEC5C
:1003E00002F00BEC02F027EC02F012000306FF0E05
:1003F000036204EF02F03B0E036E0406FF0E04627C
:1004000004EF02F00B0E046E7DEC02F00BEC02F038
:1004100027EC02F01200C2EC00F0015017E0A7EC4C
:1004200000F0010E016216EF02F01200ADEC00F0D8
:10043000020E01621DEF02F01200B3EC00F0030E99
:10044000016224EF02F01200B9EC00F0120000EE9D
:1004500060F00C0E086EEE6A0806FDE10450086EAE
:10046000010E066E47EC02F073EC02F00550086EC8
:1004700000EE60F00850E926EF5004E1020EEF6E46
:1004800044EF02F0030EEF6E68EC02F0120000EE93
:1004900060F00850E9260650EF6E1200075015E094
:1004A000010E076257EF02F01DEC01F01200020E80
:1004B00007625EEF02F02BEC01F01200030E076200
:1004C00065EF02F039EC01F0120047EC01F0120088
:1004D00000EE60F00C0E086EEE50076E4EEC02F06F
:1004E0000806FAE112000350066E056A050E065E64
:1004F00003E3052A76EF02F012000350066E050EA4
:0E050000065E02E37FEF02F00624016E120099
:020000040030CA
:010000008C73
:01000100FE00
:010004009F5C
:01000700DF19
:00000001FF
